{
  "contractName": "LandRegistry",
  "abi": [
    {
      "inputs": [],
      "stateMutability": "nonpayable",
      "type": "constructor"
    },
    {
      "anonymous": false,
      "inputs": [
        {
          "indexed": true,
          "internalType": "uint256",
          "name": "id",
          "type": "uint256"
        },
        {
          "indexed": true,
          "internalType": "address",
          "name": "owner",
          "type": "address"
        },
        {
          "indexed": false,
          "internalType": "string",
          "name": "location",
          "type": "string"
        },
        {
          "indexed": false,
          "internalType": "uint256",
          "name": "price",
          "type": "uint256"
        }
      ],
      "name": "LandRegistered",
      "type": "event"
    },
    {
      "inputs": [],
      "name": "landCount",
      "outputs": [
        {
          "internalType": "uint256",
          "name": "",
          "type": "uint256"
        }
      ],
      "stateMutability": "view",
      "type": "function"
    },
    {
      "inputs": [
        {
          "internalType": "uint256",
          "name": "",
          "type": "uint256"
        }
      ],
      "name": "lands",
      "outputs": [
        {
          "internalType": "uint256",
          "name": "id",
          "type": "uint256"
        },
        {
          "internalType": "address",
          "name": "owner",
          "type": "address"
        },
        {
          "internalType": "string",
          "name": "location",
          "type": "string"
        },
        {
          "internalType": "uint256",
          "name": "price",
          "type": "uint256"
        }
      ],
      "stateMutability": "view",
      "type": "function"
    },
    {
      "inputs": [
        {
          "internalType": "string",
          "name": "_location",
          "type": "string"
        },
        {
          "internalType": "uint256",
          "name": "_price",
          "type": "uint256"
        }
      ],
      "name": "registerLand",
      "outputs": [],
      "stateMutability": "nonpayable",
      "type": "function"
    }
  ],
  "bytecode": "0x608060405234801561000f575f80fd5b505f600181905550610ad6806100245f395ff3fe608060405234801561000f575f80fd5b506004361061003f575f3560e01c8063ce924ed914610043578063d7bce6581461005f578063e261f1e51461007d575b5f80fd5b61005d600480360381019061005891906104b5565b6100b0565b005b61006761025f565b604051610074919061051e565b60405180910390f35b61009760048036038101906100929190610537565b610265565b6040516100a7949392919061061b565b60405180910390f35b5f8251116100f3576040517f08c379a00000000000000000000000000000000000000000000000000000000081526004016100ea906106af565b60405180910390fd5b5f8111610135576040517f08c379a000000000000000000000000000000000000000000000000000000000815260040161012c90610717565b60405180910390fd5b60015f81548092919061014790610762565b9190505550604051806080016040528060015481526020013373ffffffffffffffffffffffffffffffffffffffff168152602001838152602001828152505f8060015481526020019081526020015f205f820151815f01556020820151816001015f6101000a81548173ffffffffffffffffffffffffffffffffffffffff021916908373ffffffffffffffffffffffffffffffffffffffff16021790555060408201518160020190816101fa91906109a3565b50606082015181600301559050503373ffffffffffffffffffffffffffffffffffffffff166001547f09f87bd638cbe9814396205461896d192bb615baa655b37f43ef8414a75b7fd58484604051610253929190610a72565b60405180910390a35050565b60015481565b5f602052805f5260405f205f91509050805f015490806001015f9054906101000a900473ffffffffffffffffffffffffffffffffffffffff16908060020180546102ae906107d6565b80601f01602080910402602001604051908101604052809291908181526020018280546102da906107d6565b80156103255780601f106102fc57610100808354040283529160200191610325565b820191905f5260205f20905b81548152906001019060200180831161030857829003601f168201915b5050505050908060030154905084565b5f604051905090565b5f80fd5b5f80fd5b5f80fd5b5f80fd5b5f601f19601f8301169050919050565b7f4e487b71000000000000000000000000000000000000000000000000000000005f52604160045260245ffd5b6103948261034e565b810181811067ffffffffffffffff821117156103b3576103b261035e565b5b80604052505050565b5f6103c5610335565b90506103d1828261038b565b919050565b5f67ffffffffffffffff8211156103f0576103ef61035e565b5b6103f98261034e565b9050602081019050919050565b828183375f83830152505050565b5f610426610421846103d6565b6103bc565b9050828152602081018484840111156104425761044161034a565b5b61044d848285610406565b509392505050565b5f82601f83011261046957610468610346565b5b8135610479848260208601610414565b91505092915050565b5f819050919050565b61049481610482565b811461049e575f80fd5b50565b5f813590506104af8161048b565b92915050565b5f80604083850312156104cb576104ca61033e565b5b5f83013567ffffffffffffffff8111156104e8576104e7610342565b5b6104f485828601610455565b9250506020610505858286016104a1565b9150509250929050565b61051881610482565b82525050565b5f6020820190506105315f83018461050f565b92915050565b5f6020828403121561054c5761054b61033e565b5b5f610559848285016104a1565b91505092915050565b5f73ffffffffffffffffffffffffffffffffffffffff82169050919050565b5f61058b82610562565b9050919050565b61059b81610581565b82525050565b5f81519050919050565b5f82825260208201905092915050565b5f5b838110156105d85780820151818401526020810190506105bd565b5f8484015250505050565b5f6105ed826105a1565b6105f781856105ab565b93506106078185602086016105bb565b6106108161034e565b840191505092915050565b5f60808201905061062e5f83018761050f565b61063b6020830186610592565b818103604083015261064d81856105e3565b905061065c606083018461050f565b95945050505050565b7f4c6f636174696f6e2063616e6e6f7420626520656d70747900000000000000005f82015250565b5f6106996018836105ab565b91506106a482610665565b602082019050919050565b5f6020820190508181035f8301526106c68161068d565b9050919050565b7f5072696365206d7573742062652067726561746572207468616e207a65726f005f82015250565b5f610701601f836105ab565b915061070c826106cd565b602082019050919050565b5f6020820190508181035f83015261072e816106f5565b9050919050565b7f4e487b71000000000000000000000000000000000000000000000000000000005f52601160045260245ffd5b5f61076c82610482565b91507fffffffffffffffffffffffffffffffffffffffffffffffffffffffffffffffff820361079e5761079d610735565b5b600182019050919050565b7f4e487b71000000000000000000000000000000000000000000000000000000005f52602260045260245ffd5b5f60028204905060018216806107ed57607f821691505b602082108103610800576107ff6107a9565b5b50919050565b5f819050815f5260205f209050919050565b5f6020601f8301049050919050565b5f82821b905092915050565b5f600883026108627fffffffffffffffffffffffffffffffffffffffffffffffffffffffffffffffff82610827565b61086c8683610827565b95508019841693508086168417925050509392505050565b5f819050919050565b5f6108a76108a261089d84610482565b610884565b610482565b9050919050565b5f819050919050565b6108c08361088d565b6108d46108cc826108ae565b848454610833565b825550505050565b5f90565b6108e86108dc565b6108f38184846108b7565b505050565b5b818110156109165761090b5f826108e0565b6001810190506108f9565b5050565b601f82111561095b5761092c81610806565b61093584610818565b81016020851015610944578190505b61095861095085610818565b8301826108f8565b50505b505050565b5f82821c905092915050565b5f61097b5f1984600802610960565b1980831691505092915050565b5f610993838361096c565b9150826002028217905092915050565b6109ac826105a1565b67ffffffffffffffff8111156109c5576109c461035e565b5b6109cf82546107d6565b6109da82828561091a565b5f60209050601f831160018114610a0b575f84156109f9578287015190505b610a038582610988565b865550610a6a565b601f198416610a1986610806565b5f5b82811015610a4057848901518255600182019150602085019450602081019050610a1b565b86831015610a5d5784890151610a59601f89168261096c565b8355505b6001600288020188555050505b505050505050565b5f6040820190508181035f830152610a8a81856105e3565b9050610a99602083018461050f565b939250505056fea2646970667358221220eaf214646fc86fdce2bc75b9ff21842e7f887c1ee46585ef8c0af94b1252cd1c64736f6c63430008150033",
  "immutableReferences": {},
  "source": "// SPDX-License-Identifier: MIT\r\npragma solidity ^0.8.21;\r\n\r\ncontract LandRegistry {\r\n    struct Land {\r\n        uint id;\r\n        address owner;\r\n        string location;\r\n        uint price;\r\n    }\r\n\r\n    mapping(uint => Land) public lands;\r\n    uint public landCount;\r\n\r\n    event LandRegistered(uint indexed id, address indexed owner, string location, uint price);\r\n\r\n    constructor() {\r\n        landCount = 0; // Initializing land count\r\n    }\r\n\r\n    function registerLand(string memory _location, uint _price) public {\r\n        require(bytes(_location).length > 0, \"Location cannot be empty\");\r\n        require(_price > 0, \"Price must be greater than zero\");\r\n\r\n        landCount++;\r\n        lands[landCount] = Land(landCount, msg.sender, _location, _price);\r\n\r\n        emit LandRegistered(landCount, msg.sender, _location, _price);\r\n    }\r\n}\r\n",
  "sourcePath": "E:\\blockchainProject\\blockchain\\contracts\\LandRegistry.sol",
  "compiler": {
    "name": "solc",
    "version": "0.8.21+commit.d9974bed.Emscripten.clang"
  },
  "schemaVersion": "3.4.16",
  "updatedAt": "2025-02-14T17:32:49.279Z",
  "devdoc": {
    "kind": "dev",
    "methods": {},
    "version": 1
  },
  "userdoc": {
    "kind": "user",
    "methods": {},
    "version": 1
  }
}