{
  "contractName": "LandRegistry",
  "abi": [
    {
      "inputs": [],
      "name": "landCount",
      "outputs": [
        {
          "internalType": "uint256",
          "name": "",
          "type": "uint256"
        }
      ],
      "stateMutability": "view",
      "type": "function"
    },
    {
      "inputs": [
        {
          "internalType": "uint256",
          "name": "",
          "type": "uint256"
        }
      ],
      "name": "lands",
      "outputs": [
        {
          "internalType": "uint256",
          "name": "id",
          "type": "uint256"
        },
        {
          "internalType": "string",
          "name": "owner",
          "type": "string"
        },
        {
          "internalType": "string",
          "name": "location",
          "type": "string"
        },
        {
          "internalType": "uint256",
          "name": "price",
          "type": "uint256"
        }
      ],
      "stateMutability": "view",
      "type": "function"
    },
    {
      "inputs": [
        {
          "internalType": "string",
          "name": "_owner",
          "type": "string"
        },
        {
          "internalType": "string",
          "name": "_location",
          "type": "string"
        },
        {
          "internalType": "uint256",
          "name": "_price",
          "type": "uint256"
        }
      ],
      "name": "registerLand",
      "outputs": [],
      "stateMutability": "nonpayable",
      "type": "function"
    },
    {
      "inputs": [
        {
          "internalType": "uint256",
          "name": "_id",
          "type": "uint256"
        }
      ],
      "name": "getLand",
      "outputs": [
        {
          "components": [
            {
              "internalType": "uint256",
              "name": "id",
              "type": "uint256"
            },
            {
              "internalType": "string",
              "name": "owner",
              "type": "string"
            },
            {
              "internalType": "string",
              "name": "location",
              "type": "string"
            },
            {
              "internalType": "uint256",
              "name": "price",
              "type": "uint256"
            }
          ],
          "internalType": "struct LandRegistry.Land",
          "name": "",
          "type": "tuple"
        }
      ],
      "stateMutability": "view",
      "type": "function"
    }
  ],
  "bytecode": "0x60806040525f600155348015610013575f80fd5b50610bb4806100215f395ff3fe608060405234801561000f575f80fd5b506004361061004a575f3560e01c8063cb9bff701461004e578063d7bce6581461006a578063e261f1e514610088578063f02dd53f146100bb575b5f80fd5b610068600480360381019061006391906105bd565b6100eb565b005b61007261017d565b60405161007f9190610654565b60405180910390f35b6100a2600480360381019061009d919061066d565b610183565b6040516100b29493929190610712565b60405180910390f35b6100d560048036038101906100d0919061066d565b6102ba565b6040516100e29190610821565b60405180910390f35b60015f8154809291906100fd9061086e565b919050555060405180608001604052806001548152602001848152602001838152602001828152505f8060015481526020019081526020015f205f820151815f015560208201518160010190816101549190610aaf565b50604082015181600201908161016a9190610aaf565b5060608201518160030155905050505050565b60015481565b5f602052805f5260405f205f91509050805f0154908060010180546101a7906108e2565b80601f01602080910402602001604051908101604052809291908181526020018280546101d3906108e2565b801561021e5780601f106101f55761010080835404028352916020019161021e565b820191905f5260205f20905b81548152906001019060200180831161020157829003601f168201915b505050505090806002018054610233906108e2565b80601f016020809104026020016040519081016040528092919081815260200182805461025f906108e2565b80156102aa5780601f10610281576101008083540402835291602001916102aa565b820191905f5260205f20905b81548152906001019060200180831161028d57829003601f168201915b5050505050908060030154905084565b6102c2610417565b5f808381526020019081526020015f206040518060800160405290815f82015481526020016001820180546102f6906108e2565b80601f0160208091040260200160405190810160405280929190818152602001828054610322906108e2565b801561036d5780601f106103445761010080835404028352916020019161036d565b820191905f5260205f20905b81548152906001019060200180831161035057829003601f168201915b50505050508152602001600282018054610386906108e2565b80601f01602080910402602001604051908101604052809291908181526020018280546103b2906108e2565b80156103fd5780601f106103d4576101008083540402835291602001916103fd565b820191905f5260205f20905b8154815290600101906020018083116103e057829003601f168201915b505050505081526020016003820154815250509050919050565b60405180608001604052805f815260200160608152602001606081526020015f81525090565b5f604051905090565b5f80fd5b5f80fd5b5f80fd5b5f80fd5b5f601f19601f8301169050919050565b7f4e487b71000000000000000000000000000000000000000000000000000000005f52604160045260245ffd5b61049c82610456565b810181811067ffffffffffffffff821117156104bb576104ba610466565b5b80604052505050565b5f6104cd61043d565b90506104d98282610493565b919050565b5f67ffffffffffffffff8211156104f8576104f7610466565b5b61050182610456565b9050602081019050919050565b828183375f83830152505050565b5f61052e610529846104de565b6104c4565b90508281526020810184848401111561054a57610549610452565b5b61055584828561050e565b509392505050565b5f82601f8301126105715761057061044e565b5b813561058184826020860161051c565b91505092915050565b5f819050919050565b61059c8161058a565b81146105a6575f80fd5b50565b5f813590506105b781610593565b92915050565b5f805f606084860312156105d4576105d3610446565b5b5f84013567ffffffffffffffff8111156105f1576105f061044a565b5b6105fd8682870161055d565b935050602084013567ffffffffffffffff81111561061e5761061d61044a565b5b61062a8682870161055d565b925050604061063b868287016105a9565b9150509250925092565b61064e8161058a565b82525050565b5f6020820190506106675f830184610645565b92915050565b5f6020828403121561068257610681610446565b5b5f61068f848285016105a9565b91505092915050565b5f81519050919050565b5f82825260208201905092915050565b5f5b838110156106cf5780820151818401526020810190506106b4565b5f8484015250505050565b5f6106e482610698565b6106ee81856106a2565b93506106fe8185602086016106b2565b61070781610456565b840191505092915050565b5f6080820190506107255f830187610645565b818103602083015261073781866106da565b9050818103604083015261074b81856106da565b905061075a6060830184610645565b95945050505050565b61076c8161058a565b82525050565b5f82825260208201905092915050565b5f61078c82610698565b6107968185610772565b93506107a68185602086016106b2565b6107af81610456565b840191505092915050565b5f608083015f8301516107cf5f860182610763565b50602083015184820360208601526107e78282610782565b915050604083015184820360408601526108018282610782565b91505060608301516108166060860182610763565b508091505092915050565b5f6020820190508181035f83015261083981846107ba565b905092915050565b7f4e487b71000000000000000000000000000000000000000000000000000000005f52601160045260245ffd5b5f6108788261058a565b91507fffffffffffffffffffffffffffffffffffffffffffffffffffffffffffffffff82036108aa576108a9610841565b5b600182019050919050565b7f4e487b71000000000000000000000000000000000000000000000000000000005f52602260045260245ffd5b5f60028204905060018216806108f957607f821691505b60208210810361090c5761090b6108b5565b5b50919050565b5f819050815f5260205f209050919050565b5f6020601f8301049050919050565b5f82821b905092915050565b5f6008830261096e7fffffffffffffffffffffffffffffffffffffffffffffffffffffffffffffffff82610933565b6109788683610933565b95508019841693508086168417925050509392505050565b5f819050919050565b5f6109b36109ae6109a98461058a565b610990565b61058a565b9050919050565b5f819050919050565b6109cc83610999565b6109e06109d8826109ba565b84845461093f565b825550505050565b5f90565b6109f46109e8565b6109ff8184846109c3565b505050565b5b81811015610a2257610a175f826109ec565b600181019050610a05565b5050565b601f821115610a6757610a3881610912565b610a4184610924565b81016020851015610a50578190505b610a64610a5c85610924565b830182610a04565b50505b505050565b5f82821c905092915050565b5f610a875f1984600802610a6c565b1980831691505092915050565b5f610a9f8383610a78565b9150826002028217905092915050565b610ab882610698565b67ffffffffffffffff811115610ad157610ad0610466565b5b610adb82546108e2565b610ae6828285610a26565b5f60209050601f831160018114610b17575f8415610b05578287015190505b610b0f8582610a94565b865550610b76565b601f198416610b2586610912565b5f5b82811015610b4c57848901518255600182019150602085019450602081019050610b27565b86831015610b695784890151610b65601f891682610a78565b8355505b6001600288020188555050505b50505050505056fea264697066735822122069f601b3aff38a37872c3084931d2241d6a43f7b409ed7b5a563efc73a2130cd64736f6c63430008150033",
  "immutableReferences": {},
  "source": "// SPDX-License-Identifier: MIT\r\n\r\npragma solidity ^0.8.21;\r\n\r\ncontract LandRegistry{\r\n    struct Land {\r\n        uint id;\r\n        string owner;\r\n        string location;\r\n        uint price;\r\n    }\r\n    mapping(uint => Land) public lands;\r\n    uint public landCount = 0;\r\n\r\n    function registerLand(string memory _owner, string memory _location, uint _price) public {\r\n        landCount++;\r\n        lands[landCount] = Land(landCount, _owner, _location, _price);\r\n    }\r\n\r\n    function getLand(uint _id) public view returns (Land memory){\r\n        return lands[_id];\r\n    }\r\n}",
  "sourcePath": "E:\\blockchainProject\\blockchain\\contracts\\LandRegistry.sol",
  "compiler": {
    "name": "solc",
    "version": "0.8.21+commit.d9974bed.Emscripten.clang"
  },
  "schemaVersion": "3.4.16",
  "updatedAt": "2025-02-09T17:47:34.736Z",
  "devdoc": {
    "kind": "dev",
    "methods": {},
    "version": 1
  },
  "userdoc": {
    "kind": "user",
    "methods": {},
    "version": 1
  }
}