{
  "contractName": "LandRegistry",
  "abi": [
    {
      "anonymous": false,
      "inputs": [
        {
          "indexed": false,
          "internalType": "uint256",
          "name": "id",
          "type": "uint256"
        },
        {
          "indexed": true,
          "internalType": "address",
          "name": "owner",
          "type": "address"
        },
        {
          "indexed": false,
          "internalType": "string",
          "name": "location",
          "type": "string"
        },
        {
          "indexed": false,
          "internalType": "uint256",
          "name": "price",
          "type": "uint256"
        }
      ],
      "name": "LandRegistered",
      "type": "event"
    },
    {
      "inputs": [],
      "name": "landCount",
      "outputs": [
        {
          "internalType": "uint256",
          "name": "",
          "type": "uint256"
        }
      ],
      "stateMutability": "view",
      "type": "function"
    },
    {
      "inputs": [
        {
          "internalType": "uint256",
          "name": "",
          "type": "uint256"
        }
      ],
      "name": "lands",
      "outputs": [
        {
          "internalType": "uint256",
          "name": "id",
          "type": "uint256"
        },
        {
          "internalType": "address",
          "name": "owner",
          "type": "address"
        },
        {
          "internalType": "string",
          "name": "location",
          "type": "string"
        },
        {
          "internalType": "uint256",
          "name": "price",
          "type": "uint256"
        }
      ],
      "stateMutability": "view",
      "type": "function"
    },
    {
      "inputs": [
        {
          "internalType": "string",
          "name": "_location",
          "type": "string"
        },
        {
          "internalType": "uint256",
          "name": "_price",
          "type": "uint256"
        }
      ],
      "name": "registerLand",
      "outputs": [],
      "stateMutability": "nonpayable",
      "type": "function"
    },
    {
      "inputs": [
        {
          "internalType": "uint256",
          "name": "_id",
          "type": "uint256"
        }
      ],
      "name": "getLand",
      "outputs": [
        {
          "components": [
            {
              "internalType": "uint256",
              "name": "id",
              "type": "uint256"
            },
            {
              "internalType": "address",
              "name": "owner",
              "type": "address"
            },
            {
              "internalType": "string",
              "name": "location",
              "type": "string"
            },
            {
              "internalType": "uint256",
              "name": "price",
              "type": "uint256"
            }
          ],
          "internalType": "struct LandRegistry.Land",
          "name": "",
          "type": "tuple"
        }
      ],
      "stateMutability": "view",
      "type": "function"
    }
  ],
  "bytecode": "0x60806040525f600155348015610013575f80fd5b50610d70806100215f395ff3fe608060405234801561000f575f80fd5b506004361061004a575f3560e01c8063ce924ed91461004e578063d7bce6581461006a578063e261f1e514610088578063f02dd53f146100bb575b5f80fd5b6100686004803603810190610063919061065b565b6100eb565b005b610072610258565b60405161007f91906106c4565b60405180910390f35b6100a2600480360381019061009d91906106dd565b61025e565b6040516100b294939291906107c1565b60405180910390f35b6100d560048036038101906100d091906106dd565b61032e565b6040516100e291906108d1565b60405180910390f35b5f811161012d576040517f08c379a00000000000000000000000000000000000000000000000000000000081526004016101249061093b565b60405180910390fd5b60015f81548092919061013f90610986565b9190505550604051806080016040528060015481526020013373ffffffffffffffffffffffffffffffffffffffff168152602001838152602001828152505f8060015481526020019081526020015f205f820151815f01556020820151816001015f6101000a81548173ffffffffffffffffffffffffffffffffffffffff021916908373ffffffffffffffffffffffffffffffffffffffff16021790555060408201518160020190816101f29190610bc7565b50606082015181600301559050503373ffffffffffffffffffffffffffffffffffffffff167f09f87bd638cbe9814396205461896d192bb615baa655b37f43ef8414a75b7fd5600154848460405161024c93929190610c96565b60405180910390a25050565b60015481565b5f602052805f5260405f205f91509050805f015490806001015f9054906101000a900473ffffffffffffffffffffffffffffffffffffffff16908060020180546102a7906109fa565b80601f01602080910402602001604051908101604052809291908181526020018280546102d3906109fa565b801561031e5780601f106102f55761010080835404028352916020019161031e565b820191905f5260205f20905b81548152906001019060200180831161030157829003601f168201915b5050505050908060030154905084565b6103366104a0565b5f8211801561034757506001548211155b610386576040517f08c379a000000000000000000000000000000000000000000000000000000000815260040161037d90610d1c565b60405180910390fd5b5f808381526020019081526020015f206040518060800160405290815f8201548152602001600182015f9054906101000a900473ffffffffffffffffffffffffffffffffffffffff1673ffffffffffffffffffffffffffffffffffffffff1673ffffffffffffffffffffffffffffffffffffffff16815260200160028201805461040f906109fa565b80601f016020809104026020016040519081016040528092919081815260200182805461043b906109fa565b80156104865780601f1061045d57610100808354040283529160200191610486565b820191905f5260205f20905b81548152906001019060200180831161046957829003601f168201915b505050505081526020016003820154815250509050919050565b60405180608001604052805f81526020015f73ffffffffffffffffffffffffffffffffffffffff168152602001606081526020015f81525090565b5f604051905090565b5f80fd5b5f80fd5b5f80fd5b5f80fd5b5f601f19601f8301169050919050565b7f4e487b71000000000000000000000000000000000000000000000000000000005f52604160045260245ffd5b61053a826104f4565b810181811067ffffffffffffffff8211171561055957610558610504565b5b80604052505050565b5f61056b6104db565b90506105778282610531565b919050565b5f67ffffffffffffffff82111561059657610595610504565b5b61059f826104f4565b9050602081019050919050565b828183375f83830152505050565b5f6105cc6105c78461057c565b610562565b9050828152602081018484840111156105e8576105e76104f0565b5b6105f38482856105ac565b509392505050565b5f82601f83011261060f5761060e6104ec565b5b813561061f8482602086016105ba565b91505092915050565b5f819050919050565b61063a81610628565b8114610644575f80fd5b50565b5f8135905061065581610631565b92915050565b5f8060408385031215610671576106706104e4565b5b5f83013567ffffffffffffffff81111561068e5761068d6104e8565b5b61069a858286016105fb565b92505060206106ab85828601610647565b9150509250929050565b6106be81610628565b82525050565b5f6020820190506106d75f8301846106b5565b92915050565b5f602082840312156106f2576106f16104e4565b5b5f6106ff84828501610647565b91505092915050565b5f73ffffffffffffffffffffffffffffffffffffffff82169050919050565b5f61073182610708565b9050919050565b61074181610727565b82525050565b5f81519050919050565b5f82825260208201905092915050565b5f5b8381101561077e578082015181840152602081019050610763565b5f8484015250505050565b5f61079382610747565b61079d8185610751565b93506107ad818560208601610761565b6107b6816104f4565b840191505092915050565b5f6080820190506107d45f8301876106b5565b6107e16020830186610738565b81810360408301526107f38185610789565b905061080260608301846106b5565b95945050505050565b61081481610628565b82525050565b61082381610727565b82525050565b5f82825260208201905092915050565b5f61084382610747565b61084d8185610829565b935061085d818560208601610761565b610866816104f4565b840191505092915050565b5f608083015f8301516108865f86018261080b565b506020830151610899602086018261081a565b50604083015184820360408601526108b18282610839565b91505060608301516108c6606086018261080b565b508091505092915050565b5f6020820190508181035f8301526108e98184610871565b905092915050565b7f5072696365206d7573742062652067726561746572207468616e207a65726f005f82015250565b5f610925601f83610751565b9150610930826108f1565b602082019050919050565b5f6020820190508181035f83015261095281610919565b9050919050565b7f4e487b71000000000000000000000000000000000000000000000000000000005f52601160045260245ffd5b5f61099082610628565b91507fffffffffffffffffffffffffffffffffffffffffffffffffffffffffffffffff82036109c2576109c1610959565b5b600182019050919050565b7f4e487b71000000000000000000000000000000000000000000000000000000005f52602260045260245ffd5b5f6002820490506001821680610a1157607f821691505b602082108103610a2457610a236109cd565b5b50919050565b5f819050815f5260205f209050919050565b5f6020601f8301049050919050565b5f82821b905092915050565b5f60088302610a867fffffffffffffffffffffffffffffffffffffffffffffffffffffffffffffffff82610a4b565b610a908683610a4b565b95508019841693508086168417925050509392505050565b5f819050919050565b5f610acb610ac6610ac184610628565b610aa8565b610628565b9050919050565b5f819050919050565b610ae483610ab1565b610af8610af082610ad2565b848454610a57565b825550505050565b5f90565b610b0c610b00565b610b17818484610adb565b505050565b5b81811015610b3a57610b2f5f82610b04565b600181019050610b1d565b5050565b601f821115610b7f57610b5081610a2a565b610b5984610a3c565b81016020851015610b68578190505b610b7c610b7485610a3c565b830182610b1c565b50505b505050565b5f82821c905092915050565b5f610b9f5f1984600802610b84565b1980831691505092915050565b5f610bb78383610b90565b9150826002028217905092915050565b610bd082610747565b67ffffffffffffffff811115610be957610be8610504565b5b610bf382546109fa565b610bfe828285610b3e565b5f60209050601f831160018114610c2f575f8415610c1d578287015190505b610c278582610bac565b865550610c8e565b601f198416610c3d86610a2a565b5f5b82811015610c6457848901518255600182019150602085019450602081019050610c3f565b86831015610c815784890151610c7d601f891682610b90565b8355505b6001600288020188555050505b505050505050565b5f606082019050610ca95f8301866106b5565b8181036020830152610cbb8185610789565b9050610cca60408301846106b5565b949350505050565b7f496e76616c6964206c616e6420494400000000000000000000000000000000005f82015250565b5f610d06600f83610751565b9150610d1182610cd2565b602082019050919050565b5f6020820190508181035f830152610d3381610cfa565b905091905056fea26469706673582212201d038dd72f98e47ecc159cbd4f258b162fb4d8e6970623f14fd21506b873547a64736f6c63430008150033",
  "immutableReferences": {},
  "source": "// SPDX-License-Identifier: MIT\r\npragma solidity ^0.8.21;\r\n\r\ncontract LandRegistry {\r\n    struct Land {\r\n        uint id;\r\n        address owner;\r\n        string location;\r\n        uint price;\r\n    }\r\n\r\n    mapping(uint => Land) public lands;\r\n    uint public landCount = 0;\r\n\r\n    event LandRegistered(uint id, address indexed owner, string location, uint price);\r\n\r\n    function registerLand(string memory _location, uint _price) public {\r\n        require(_price > 0, \"Price must be greater than zero\");\r\n\r\n        landCount++;\r\n        lands[landCount] = Land(landCount, msg.sender, _location, _price);\r\n\r\n        emit LandRegistered(landCount, msg.sender, _location, _price);\r\n    }\r\n\r\n    function getLand(uint _id) public view returns (Land memory) {\r\n        require(_id > 0 && _id <= landCount, \"Invalid land ID\");\r\n        return lands[_id];\r\n    }\r\n}\r\n",
  "sourcePath": "E:\\blockchainProject\\blockchain\\contracts\\LandRegistry.sol",
  "compiler": {
    "name": "solc",
    "version": "0.8.21+commit.d9974bed.Emscripten.clang"
  },
  "schemaVersion": "3.4.16",
  "updatedAt": "2025-02-13T12:18:45.181Z",
  "devdoc": {
    "kind": "dev",
    "methods": {},
    "version": 1
  },
  "userdoc": {
    "kind": "user",
    "methods": {},
    "version": 1
  }
}