{
    "_format": "hh-sol-artifact-1",
    "contractName": "LandRegistry",
    "sourceName": "contracts/LandRegistry.sol",
    "abi": [
        {
            "inputs": [],
            "stateMutability": "nonpayable",
            "type": "constructor"
        },
        {
            "anonymous": false,
            "inputs": [
                {
                    "indexed": false,
                    "internalType": "uint256",
                    "name": "id",
                    "type": "uint256"
                },
                {
                    "indexed": false,
                    "internalType": "address",
                    "name": "winner",
                    "type": "address"
                },
                {
                    "indexed": false,
                    "internalType": "uint256",
                    "name": "winningBid",
                    "type": "uint256"
                }
            ],
            "name": "AuctionEnded",
            "type": "event"
        },
        {
            "anonymous": false,
            "inputs": [
                {
                    "indexed": false,
                    "internalType": "uint256",
                    "name": "id",
                    "type": "uint256"
                },
                {
                    "indexed": false,
                    "internalType": "uint256",
                    "name": "startPrice",
                    "type": "uint256"
                }
            ],
            "name": "AuctionStarted",
            "type": "event"
        },
        {
            "anonymous": false,
            "inputs": [
                {
                    "indexed": false,
                    "internalType": "uint256",
                    "name": "id",
                    "type": "uint256"
                },
                {
                    "indexed": false,
                    "internalType": "uint256",
                    "name": "price",
                    "type": "uint256"
                }
            ],
            "name": "LandListedForSale",
            "type": "event"
        },
        {
            "anonymous": false,
            "inputs": [
                {
                    "indexed": false,
                    "internalType": "uint256",
                    "name": "id",
                    "type": "uint256"
                },
                {
                    "indexed": false,
                    "internalType": "address",
                    "name": "owner",
                    "type": "address"
                },
                {
                    "indexed": false,
                    "internalType": "string",
                    "name": "location",
                    "type": "string"
                },
                {
                    "indexed": false,
                    "internalType": "uint256",
                    "name": "price",
                    "type": "uint256"
                }
            ],
            "name": "LandRegistered",
            "type": "event"
        },
        {
            "anonymous": false,
            "inputs": [
                {
                    "indexed": false,
                    "internalType": "uint256",
                    "name": "id",
                    "type": "uint256"
                },
                {
                    "indexed": false,
                    "internalType": "address",
                    "name": "newOwner",
                    "type": "address"
                },
                {
                    "indexed": false,
                    "internalType": "uint256",
                    "name": "price",
                    "type": "uint256"
                }
            ],
            "name": "LandTransferred",
            "type": "event"
        },
        {
            "anonymous": false,
            "inputs": [
                {
                    "indexed": false,
                    "internalType": "uint256",
                    "name": "id",
                    "type": "uint256"
                },
                {
                    "indexed": false,
                    "internalType": "bool",
                    "name": "status",
                    "type": "bool"
                }
            ],
            "name": "LandVerified",
            "type": "event"
        },
        {
            "anonymous": false,
            "inputs": [
                {
                    "indexed": false,
                    "internalType": "uint256",
                    "name": "id",
                    "type": "uint256"
                },
                {
                    "indexed": false,
                    "internalType": "address",
                    "name": "bidder",
                    "type": "address"
                },
                {
                    "indexed": false,
                    "internalType": "uint256",
                    "name": "bidAmount",
                    "type": "uint256"
                }
            ],
            "name": "NewBid",
            "type": "event"
        },
        {
            "anonymous": false,
            "inputs": [
                {
                    "indexed": false,
                    "internalType": "address",
                    "name": "user",
                    "type": "address"
                },
                {
                    "indexed": false,
                    "internalType": "string",
                    "name": "name",
                    "type": "string"
                },
                {
                    "indexed": false,
                    "internalType": "string",
                    "name": "email",
                    "type": "string"
                },
                {
                    "indexed": false,
                    "internalType": "string",
                    "name": "phone",
                    "type": "string"
                }
            ],
            "name": "UserRegistered",
            "type": "event"
        },
        {
            "anonymous": false,
            "inputs": [
                {
                    "indexed": false,
                    "internalType": "address",
                    "name": "user",
                    "type": "address"
                }
            ],
            "name": "UserVerified",
            "type": "event"
        },
        {
            "inputs": [
                {
                    "internalType": "uint256",
                    "name": "",
                    "type": "uint256"
                }
            ],
            "name": "auctions",
            "outputs": [
                {
                    "internalType": "uint256",
                    "name": "landId",
                    "type": "uint256"
                },
                {
                    "internalType": "address",
                    "name": "highestBidder",
                    "type": "address"
                },
                {
                    "internalType": "uint256",
                    "name": "highestBid",
                    "type": "uint256"
                },
                {
                    "internalType": "bool",
                    "name": "isActive",
                    "type": "bool"
                }
            ],
            "stateMutability": "view",
            "type": "function"
        },
        {
            "inputs": [
                {
                    "internalType": "uint256",
                    "name": "_id",
                    "type": "uint256"
                }
            ],
            "name": "buyLand",
            "outputs": [],
            "stateMutability": "payable",
            "type": "function"
        },
        {
            "inputs": [
                {
                    "internalType": "uint256",
                    "name": "_id",
                    "type": "uint256"
                }
            ],
            "name": "endAuction",
            "outputs": [],
            "stateMutability": "nonpayable",
            "type": "function"
        },
        {
            "inputs": [
                {
                    "internalType": "address",
                    "name": "",
                    "type": "address"
                }
            ],
            "name": "isRegistered",
            "outputs": [
                {
                    "internalType": "bool",
                    "name": "",
                    "type": "bool"
                }
            ],
            "stateMutability": "view",
            "type": "function"
        },
        {
            "inputs": [
                {
                    "internalType": "uint256",
                    "name": "",
                    "type": "uint256"
                }
            ],
            "name": "lands",
            "outputs": [
                {
                    "internalType": "uint256",
                    "name": "id",
                    "type": "uint256"
                },
                {
                    "internalType": "address",
                    "name": "owner",
                    "type": "address"
                },
                {
                    "internalType": "string",
                    "name": "location",
                    "type": "string"
                },
                {
                    "internalType": "uint256",
                    "name": "price",
                    "type": "uint256"
                },
                {
                    "internalType": "bool",
                    "name": "forSale",
                    "type": "bool"
                },
                {
                    "internalType": "bool",
                    "name": "isVerified",
                    "type": "bool"
                },
                {
                    "internalType": "bool",
                    "name": "isAuctioned",
                    "type": "bool"
                }
            ],
            "stateMutability": "view",
            "type": "function"
        },
        {
            "inputs": [
                {
                    "internalType": "uint256",
                    "name": "_id",
                    "type": "uint256"
                },
                {
                    "internalType": "uint256",
                    "name": "_price",
                    "type": "uint256"
                }
            ],
            "name": "listLandForSale",
            "outputs": [],
            "stateMutability": "nonpayable",
            "type": "function"
        },
        {
            "inputs": [],
            "name": "owner",
            "outputs": [
                {
                    "internalType": "address",
                    "name": "",
                    "type": "address"
                }
            ],
            "stateMutability": "view",
            "type": "function"
        },
        {
            "inputs": [
                {
                    "internalType": "uint256",
                    "name": "_id",
                    "type": "uint256"
                }
            ],
            "name": "placeBid",
            "outputs": [],
            "stateMutability": "payable",
            "type": "function"
        },
        {
            "inputs": [
                {
                    "internalType": "string",
                    "name": "_location",
                    "type": "string"
                },
                {
                    "internalType": "uint256",
                    "name": "_price",
                    "type": "uint256"
                }
            ],
            "name": "registerLand",
            "outputs": [],
            "stateMutability": "nonpayable",
            "type": "function"
        },
        {
            "inputs": [
                {
                    "internalType": "string",
                    "name": "_name",
                    "type": "string"
                },
                {
                    "internalType": "string",
                    "name": "_email",
                    "type": "string"
                },
                {
                    "internalType": "string",
                    "name": "_phone",
                    "type": "string"
                }
            ],
            "name": "registerUser",
            "outputs": [],
            "stateMutability": "nonpayable",
            "type": "function"
        },
        {
            "inputs": [
                {
                    "internalType": "uint256",
                    "name": "_id",
                    "type": "uint256"
                },
                {
                    "internalType": "uint256",
                    "name": "_startPrice",
                    "type": "uint256"
                }
            ],
            "name": "startAuction",
            "outputs": [],
            "stateMutability": "nonpayable",
            "type": "function"
        },
        {
            "inputs": [
                {
                    "internalType": "uint256",
                    "name": "_id",
                    "type": "uint256"
                },
                {
                    "internalType": "address",
                    "name": "_newOwner",
                    "type": "address"
                }
            ],
            "name": "transferOwnership",
            "outputs": [],
            "stateMutability": "nonpayable",
            "type": "function"
        },
        {
            "inputs": [
                {
                    "internalType": "address",
                    "name": "",
                    "type": "address"
                }
            ],
            "name": "users",
            "outputs": [
                {
                    "internalType": "string",
                    "name": "name",
                    "type": "string"
                },
                {
                    "internalType": "string",
                    "name": "email",
                    "type": "string"
                },
                {
                    "internalType": "string",
                    "name": "phone",
                    "type": "string"
                },
                {
                    "internalType": "bool",
                    "name": "isVerified",
                    "type": "bool"
                }
            ],
            "stateMutability": "view",
            "type": "function"
        },
        {
            "inputs": [
                {
                    "internalType": "uint256",
                    "name": "_id",
                    "type": "uint256"
                },
                {
                    "internalType": "bool",
                    "name": "_status",
                    "type": "bool"
                }
            ],
            "name": "verifyLand",
            "outputs": [],
            "stateMutability": "nonpayable",
            "type": "function"
        },
        {
            "inputs": [
                {
                    "internalType": "address",
                    "name": "_user",
                    "type": "address"
                }
            ],
            "name": "verifyUser",
            "outputs": [],
            "stateMutability": "nonpayable",
            "type": "function"
        }
    ],
    "bytecode": "0x6080604052348015600f57600080fd5b50336000806101000a81548173ffffffffffffffffffffffffffffffffffffffff021916908373ffffffffffffffffffffffffffffffffffffffff1602179055506130da8061005f6000396000f3fe6080604052600436106100e85760003560e01c8063a87430ba1161008a578063ced3955811610059578063ced39558146102e7578063d637dcfa14610303578063e261f1e51461032c578063fd1a8fef1461036f576100e8565b8063a87430ba14610218578063b9a2de3a14610258578063c3c5a54714610281578063ce924ed9146102be576100e8565b8063571a26a0116100c6578063571a26a0146101685780635ccfe7c3146101a85780638da5cb5b146101d15780639979ef45146101fc576100e8565b806329507f73146100ed5780634d813120146101165780634fee13fc1461013f575b600080fd5b3480156100f957600080fd5b50610114600480360381019061010f9190611f62565b610398565b005b34801561012257600080fd5b5061013d60048036038101906101389190611fa2565b610577565b005b34801561014b57600080fd5b5061016660048036038101906101619190611fcf565b610726565b005b34801561017457600080fd5b5061018f600480360381019061018a919061200f565b610967565b60405161019f9493929190612075565b60405180910390f35b3480156101b457600080fd5b506101cf60048036038101906101ca91906120e6565b6109c4565b005b3480156101dd57600080fd5b506101e6610b16565b6040516101f39190612126565b60405180910390f35b6102166004803603810190610211919061200f565b610b3a565b005b34801561022457600080fd5b5061023f600480360381019061023a9190611fa2565b610e96565b60405161024f94939291906121d1565b60405180910390f35b34801561026457600080fd5b5061027f600480360381019061027a919061200f565b61106b565b005b34801561028d57600080fd5b506102a860048036038101906102a39190611fa2565b61144b565b6040516102b5919061222b565b60405180910390f35b3480156102ca57600080fd5b506102e560048036038101906102e0919061237b565b61146b565b005b61030160048036038101906102fc919061200f565b611692565b005b34801561030f57600080fd5b5061032a600480360381019061032591906123d7565b611a2a565b005b34801561033857600080fd5b50610353600480360381019061034e919061200f565b611c19565b604051610366979695949392919061247e565b60405180910390f35b34801561037b57600080fd5b5061039660048036038101906103919190611fcf565b611d2a565b005b813373ffffffffffffffffffffffffffffffffffffffff166004600083815260200190815260200160002060010160009054906101000a900473ffffffffffffffffffffffffffffffffffffffff1673ffffffffffffffffffffffffffffffffffffffff161461043d576040517f08c379a000000000000000000000000000000000000000000000000000000000815260040161043490612540565b60405180910390fd5b600360008373ffffffffffffffffffffffffffffffffffffffff1673ffffffffffffffffffffffffffffffffffffffff16815260200190815260200160002060030160009054906101000a900460ff166104cc576040517f08c379a00000000000000000000000000000000000000000000000000000000081526004016104c3906125ac565b60405180910390fd5b816004600085815260200190815260200160002060010160006101000a81548173ffffffffffffffffffffffffffffffffffffffff021916908373ffffffffffffffffffffffffffffffffffffffff1602179055507f53f8b06342a986de582a7681865a009c74e909cd7d77044d5c40673758ba4f528383600460008781526020019081526020016000206003015460405161056a939291906125cc565b60405180910390a1505050565b60008054906101000a900473ffffffffffffffffffffffffffffffffffffffff1673ffffffffffffffffffffffffffffffffffffffff163373ffffffffffffffffffffffffffffffffffffffff1614610605576040517f08c379a00000000000000000000000000000000000000000000000000000000081526004016105fc9061264f565b60405180910390fd5b600660008273ffffffffffffffffffffffffffffffffffffffff1673ffffffffffffffffffffffffffffffffffffffff16815260200190815260200160002060009054906101000a900460ff16610691576040517f08c379a0000000000000000000000000000000000000000000000000000000008152600401610688906126bb565b60405180910390fd5b6001600360008373ffffffffffffffffffffffffffffffffffffffff1673ffffffffffffffffffffffffffffffffffffffff16815260200190815260200160002060030160006101000a81548160ff0219169083151502179055507fa6625d2d26e786e2f473111bea4b2fcdbbf1863d883a2359989ce3a103d2972a8160405161071b9190612126565b60405180910390a150565b813373ffffffffffffffffffffffffffffffffffffffff166004600083815260200190815260200160002060010160009054906101000a900473ffffffffffffffffffffffffffffffffffffffff1673ffffffffffffffffffffffffffffffffffffffff16146107cb576040517f08c379a00000000000000000000000000000000000000000000000000000000081526004016107c290612540565b60405180910390fd5b6004600084815260200190815260200160002060040160019054906101000a900460ff1661082e576040517f08c379a000000000000000000000000000000000000000000000000000000000815260040161082590612727565b60405180910390fd5b6040518060800160405280848152602001600073ffffffffffffffffffffffffffffffffffffffff16815260200183815260200160011515815250600560008581526020019081526020016000206000820151816000015560208201518160010160006101000a81548173ffffffffffffffffffffffffffffffffffffffff021916908373ffffffffffffffffffffffffffffffffffffffff1602179055506040820151816002015560608201518160030160006101000a81548160ff02191690831515021790555090505060016004600085815260200190815260200160002060040160026101000a81548160ff0219169083151502179055507ff8910119ddbef5440c54532457dfe8250a10ed39e583292818f44724b9e1344c838360405161095a929190612747565b60405180910390a1505050565b60056020528060005260406000206000915090508060000154908060010160009054906101000a900473ffffffffffffffffffffffffffffffffffffffff16908060020154908060030160009054906101000a900460ff16905084565b60008054906101000a900473ffffffffffffffffffffffffffffffffffffffff1673ffffffffffffffffffffffffffffffffffffffff163373ffffffffffffffffffffffffffffffffffffffff1614610a52576040517f08c379a0000000000000000000000000000000000000000000000000000000008152600401610a499061264f565b60405180910390fd5b6000600460008481526020019081526020016000206000015403610aab576040517f08c379a0000000000000000000000000000000000000000000000000000000008152600401610aa2906127bc565b60405180910390fd5b806004600084815260200190815260200160002060040160016101000a81548160ff0219169083151502179055507f844a797c747d332e0cacaf14bbcc3c6b2f03b904c69b7ded23f3115305a390898282604051610b0a9291906127dc565b60405180910390a15050565b60008054906101000a900473ffffffffffffffffffffffffffffffffffffffff1681565b600360003373ffffffffffffffffffffffffffffffffffffffff1673ffffffffffffffffffffffffffffffffffffffff16815260200190815260200160002060030160009054906101000a900460ff16610bc9576040517f08c379a0000000000000000000000000000000000000000000000000000000008152600401610bc090612851565b60405180910390fd5b6005600082815260200190815260200160002060030160009054906101000a900460ff16610c2c576040517f08c379a0000000000000000000000000000000000000000000000000000000008152600401610c23906128bd565b60405180910390fd5b60056000828152602001908152602001600020600201543411610c84576040517f08c379a0000000000000000000000000000000000000000000000000000000008152600401610c7b9061294f565b60405180910390fd5b600073ffffffffffffffffffffffffffffffffffffffff166005600083815260200190815260200160002060010160009054906101000a900473ffffffffffffffffffffffffffffffffffffffff1673ffffffffffffffffffffffffffffffffffffffff1614610de85760006005600083815260200190815260200160002060010160009054906101000a900473ffffffffffffffffffffffffffffffffffffffff1673ffffffffffffffffffffffffffffffffffffffff166005600084815260200190815260200160002060020154604051610d60906129a0565b60006040518083038185875af1925050503d8060008114610d9d576040519150601f19603f3d011682016040523d82523d6000602084013e610da2565b606091505b5050905080610de6576040517f08c379a0000000000000000000000000000000000000000000000000000000008152600401610ddd90612a01565b60405180910390fd5b505b336005600083815260200190815260200160002060010160006101000a81548173ffffffffffffffffffffffffffffffffffffffff021916908373ffffffffffffffffffffffffffffffffffffffff1602179055503460056000838152602001908152602001600020600201819055507f558a0d5d5468d74b0db24c74eb348b42271c2ebb4c9e953ced38aaed95fa4361813334604051610e8b939291906125cc565b60405180910390a150565b6003602052806000526040600020600091509050806000018054610eb990612a50565b80601f0160208091040260200160405190810160405280929190818152602001828054610ee590612a50565b8015610f325780601f10610f0757610100808354040283529160200191610f32565b820191906000526020600020905b815481529060010190602001808311610f1557829003601f168201915b505050505090806001018054610f4790612a50565b80601f0160208091040260200160405190810160405280929190818152602001828054610f7390612a50565b8015610fc05780601f10610f9557610100808354040283529160200191610fc0565b820191906000526020600020905b815481529060010190602001808311610fa357829003601f168201915b505050505090806002018054610fd590612a50565b80601f016020809104026020016040519081016040528092919081815260200182805461100190612a50565b801561104e5780601f106110235761010080835404028352916020019161104e565b820191906000526020600020905b81548152906001019060200180831161103157829003601f168201915b5050505050908060030160009054906101000a900460ff16905084565b803373ffffffffffffffffffffffffffffffffffffffff166004600083815260200190815260200160002060010160009054906101000a900473ffffffffffffffffffffffffffffffffffffffff1673ffffffffffffffffffffffffffffffffffffffff1614611110576040517f08c379a000000000000000000000000000000000000000000000000000000000815260040161110790612540565b60405180910390fd5b6005600083815260200190815260200160002060030160009054906101000a900460ff16611173576040517f08c379a000000000000000000000000000000000000000000000000000000000815260040161116a906128bd565b60405180910390fd5b60006005600084815260200190815260200160002060030160006101000a81548160ff02191690831515021790555060006004600084815260200190815260200160002060040160026101000a81548160ff021916908315150217905550600073ffffffffffffffffffffffffffffffffffffffff166005600084815260200190815260200160002060010160009054906101000a900473ffffffffffffffffffffffffffffffffffffffff1673ffffffffffffffffffffffffffffffffffffffff16146113c05760006004600084815260200190815260200160002060010160009054906101000a900473ffffffffffffffffffffffffffffffffffffffff1673ffffffffffffffffffffffffffffffffffffffff1660056000858152602001908152602001600020600201546040516112ad906129a0565b60006040518083038185875af1925050503d80600081146112ea576040519150601f19603f3d011682016040523d82523d6000602084013e6112ef565b606091505b5050905080611333576040517f08c379a000000000000000000000000000000000000000000000000000000000815260040161132a90612acd565b60405180910390fd5b6005600084815260200190815260200160002060010160009054906101000a900473ffffffffffffffffffffffffffffffffffffffff166004600085815260200190815260200160002060010160006101000a81548173ffffffffffffffffffffffffffffffffffffffff021916908373ffffffffffffffffffffffffffffffffffffffff160217905550505b7fd2aa34a4fdbbc6dff6a3e56f46e0f3ae2a31d7785ff3487aa5c95c642acea501826005600085815260200190815260200160002060010160009054906101000a900473ffffffffffffffffffffffffffffffffffffffff16600560008681526020019081526020016000206002015460405161143f939291906125cc565b60405180910390a15050565b60066020528060005260406000206000915054906101000a900460ff1681565b600360003373ffffffffffffffffffffffffffffffffffffffff1673ffffffffffffffffffffffffffffffffffffffff16815260200190815260200160002060030160009054906101000a900460ff166114fa576040517f08c379a00000000000000000000000000000000000000000000000000000000081526004016114f190612851565b60405180910390fd5b6001600081548092919061150d90612b1c565b91905055506040518060e0016040528060015481526020013373ffffffffffffffffffffffffffffffffffffffff168152602001838152602001828152602001600015158152602001600015158152602001600015158152506004600060015481526020019081526020016000206000820151816000015560208201518160010160006101000a81548173ffffffffffffffffffffffffffffffffffffffff021916908373ffffffffffffffffffffffffffffffffffffffff16021790555060408201518160020190816115e19190612d10565b506060820151816003015560808201518160040160006101000a81548160ff02191690831515021790555060a08201518160040160016101000a81548160ff02191690831515021790555060c08201518160040160026101000a81548160ff0219169083151502179055509050507f09f87bd638cbe9814396205461896d192bb615baa655b37f43ef8414a75b7fd56001543384846040516116869493929190612de2565b60405180910390a15050565b600360003373ffffffffffffffffffffffffffffffffffffffff1673ffffffffffffffffffffffffffffffffffffffff16815260200190815260200160002060030160009054906101000a900460ff16611721576040517f08c379a000000000000000000000000000000000000000000000000000000000815260040161171890612851565b60405180910390fd5b600260009054906101000a900460ff1615611771576040517f08c379a000000000000000000000000000000000000000000000000000000000815260040161176890612e7a565b60405180910390fd5b6001600260006101000a81548160ff0219169083151502179055506004600082815260200190815260200160002060040160009054906101000a900460ff166117ef576040517f08c379a00000000000000000000000000000000000000000000000000000000081526004016117e690612ee6565b60405180910390fd5b6004600082815260200190815260200160002060030154341015611848576040517f08c379a000000000000000000000000000000000000000000000000000000000815260040161183f90612f52565b60405180910390fd5b60006004600083815260200190815260200160002060010160009054906101000a900473ffffffffffffffffffffffffffffffffffffffff169050600060046000848152602001908152602001600020600301549050336004600085815260200190815260200160002060010160006101000a81548173ffffffffffffffffffffffffffffffffffffffff021916908373ffffffffffffffffffffffffffffffffffffffff16021790555060006004600085815260200190815260200160002060040160006101000a81548160ff02191690831515021790555060008273ffffffffffffffffffffffffffffffffffffffff1682604051611948906129a0565b60006040518083038185875af1925050503d8060008114611985576040519150601f19603f3d011682016040523d82523d6000602084013e61198a565b606091505b50509050806119ce576040517f08c379a00000000000000000000000000000000000000000000000000000000081526004016119c590612fbe565b60405180910390fd5b7f53f8b06342a986de582a7681865a009c74e909cd7d77044d5c40673758ba4f52843334604051611a01939291906125cc565b60405180910390a15050506000600260006101000a81548160ff02191690831515021790555050565b600660003373ffffffffffffffffffffffffffffffffffffffff1673ffffffffffffffffffffffffffffffffffffffff16815260200190815260200160002060009054906101000a900460ff1615611ab7576040517f08c379a0000000000000000000000000000000000000000000000000000000008152600401611aae9061302a565b60405180910390fd5b604051806080016040528084815260200183815260200182815260200160001515815250600360003373ffffffffffffffffffffffffffffffffffffffff1673ffffffffffffffffffffffffffffffffffffffff1681526020019081526020016000206000820151816000019081611b2f9190612d10565b506020820151816001019081611b459190612d10565b506040820151816002019081611b5b9190612d10565b5060608201518160030160006101000a81548160ff0219169083151502179055509050506001600660003373ffffffffffffffffffffffffffffffffffffffff1673ffffffffffffffffffffffffffffffffffffffff16815260200190815260200160002060006101000a81548160ff0219169083151502179055507f509c70f523067009f7db7f46db6956d7af8b679323680dc3821a8bad001ac1e133848484604051611c0c949392919061304a565b60405180910390a1505050565b60046020528060005260406000206000915090508060000154908060010160009054906101000a900473ffffffffffffffffffffffffffffffffffffffff1690806002018054611c6890612a50565b80601f0160208091040260200160405190810160405280929190818152602001828054611c9490612a50565b8015611ce15780601f10611cb657610100808354040283529160200191611ce1565b820191906000526020600020905b815481529060010190602001808311611cc457829003601f168201915b5050505050908060030154908060040160009054906101000a900460ff16908060040160019054906101000a900460ff16908060040160029054906101000a900460ff16905087565b813373ffffffffffffffffffffffffffffffffffffffff166004600083815260200190815260200160002060010160009054906101000a900473ffffffffffffffffffffffffffffffffffffffff1673ffffffffffffffffffffffffffffffffffffffff1614611dcf576040517f08c379a0000000000000000000000000000000000000000000000000000000008152600401611dc690612540565b60405180910390fd5b6004600084815260200190815260200160002060040160019054906101000a900460ff16611e32576040517f08c379a0000000000000000000000000000000000000000000000000000000008152600401611e2990612727565b60405180910390fd5b81600460008581526020019081526020016000206003018190555060016004600085815260200190815260200160002060040160006101000a81548160ff0219169083151502179055507fdea5c3193c68e6199b356e0ceac7970d0951be96d03378b29dbaf40b6e2f43348383604051611ead929190612747565b60405180910390a1505050565b6000604051905090565b600080fd5b600080fd5b6000819050919050565b611ee181611ece565b8114611eec57600080fd5b50565b600081359050611efe81611ed8565b92915050565b600073ffffffffffffffffffffffffffffffffffffffff82169050919050565b6000611f2f82611f04565b9050919050565b611f3f81611f24565b8114611f4a57600080fd5b50565b600081359050611f5c81611f36565b92915050565b60008060408385031215611f7957611f78611ec4565b5b6000611f8785828601611eef565b9250506020611f9885828601611f4d565b9150509250929050565b600060208284031215611fb857611fb7611ec4565b5b6000611fc684828501611f4d565b91505092915050565b60008060408385031215611fe657611fe5611ec4565b5b6000611ff485828601611eef565b925050602061200585828601611eef565b9150509250929050565b60006020828403121561202557612024611ec4565b5b600061203384828501611eef565b91505092915050565b61204581611ece565b82525050565b61205481611f24565b82525050565b60008115159050919050565b61206f8161205a565b82525050565b600060808201905061208a600083018761203c565b612097602083018661204b565b6120a4604083018561203c565b6120b16060830184612066565b95945050505050565b6120c38161205a565b81146120ce57600080fd5b50565b6000813590506120e0816120ba565b92915050565b600080604083850312156120fd576120fc611ec4565b5b600061210b85828601611eef565b925050602061211c858286016120d1565b9150509250929050565b600060208201905061213b600083018461204b565b92915050565b600081519050919050565b600082825260208201905092915050565b60005b8381101561217b578082015181840152602081019050612160565b60008484015250505050565b6000601f19601f8301169050919050565b60006121a382612141565b6121ad818561214c565b93506121bd81856020860161215d565b6121c681612187565b840191505092915050565b600060808201905081810360008301526121eb8187612198565b905081810360208301526121ff8186612198565b905081810360408301526122138185612198565b90506122226060830184612066565b95945050505050565b60006020820190506122406000830184612066565b92915050565b600080fd5b600080fd5b7f4e487b7100000000000000000000000000000000000000000000000000000000600052604160045260246000fd5b61228882612187565b810181811067ffffffffffffffff821117156122a7576122a6612250565b5b80604052505050565b60006122ba611eba565b90506122c6828261227f565b919050565b600067ffffffffffffffff8211156122e6576122e5612250565b5b6122ef82612187565b9050602081019050919050565b82818337600083830152505050565b600061231e612319846122cb565b6122b0565b90508281526020810184848401111561233a5761233961224b565b5b6123458482856122fc565b509392505050565b600082601f83011261236257612361612246565b5b813561237284826020860161230b565b91505092915050565b6000806040838503121561239257612391611ec4565b5b600083013567ffffffffffffffff8111156123b0576123af611ec9565b5b6123bc8582860161234d565b92505060206123cd85828601611eef565b9150509250929050565b6000806000606084860312156123f0576123ef611ec4565b5b600084013567ffffffffffffffff81111561240e5761240d611ec9565b5b61241a8682870161234d565b935050602084013567ffffffffffffffff81111561243b5761243a611ec9565b5b6124478682870161234d565b925050604084013567ffffffffffffffff81111561246857612467611ec9565b5b6124748682870161234d565b9150509250925092565b600060e082019050612493600083018a61203c565b6124a0602083018961204b565b81810360408301526124b28188612198565b90506124c1606083018761203c565b6124ce6080830186612066565b6124db60a0830185612066565b6124e860c0830184612066565b98975050505050505050565b7f4e6f7420746865206c616e64206f776e65720000000000000000000000000000600082015250565b600061252a60128361214c565b9150612535826124f4565b602082019050919050565b600060208201905081810360008301526125598161251d565b9050919050565b7f4e6577206f776e6572206973206e6f7420766572696669656400000000000000600082015250565b600061259660198361214c565b91506125a182612560565b602082019050919050565b600060208201905081810360008301526125c581612589565b9050919050565b60006060820190506125e1600083018661203c565b6125ee602083018561204b565b6125fb604083018461203c565b949350505050565b7f4e6f7420636f6e7472616374206f776e65720000000000000000000000000000600082015250565b600061263960128361214c565b915061264482612603565b602082019050919050565b600060208201905081810360008301526126688161262c565b9050919050565b7f55736572206d7573742062652072656769737465726564206669727374000000600082015250565b60006126a5601d8361214c565b91506126b08261266f565b602082019050919050565b600060208201905081810360008301526126d481612698565b9050919050565b7f4c616e64206973206e6f74207665726966696564000000000000000000000000600082015250565b600061271160148361214c565b915061271c826126db565b602082019050919050565b6000602082019050818103600083015261274081612704565b9050919050565b600060408201905061275c600083018561203c565b612769602083018461203c565b9392505050565b7f4c616e6420646f6573206e6f7420657869737400000000000000000000000000600082015250565b60006127a660138361214c565b91506127b182612770565b602082019050919050565b600060208201905081810360008301526127d581612799565b9050919050565b60006040820190506127f1600083018561203c565b6127fe6020830184612066565b9392505050565b7f55736572206973206e6f74207665726966696564000000000000000000000000600082015250565b600061283b60148361214c565b915061284682612805565b602082019050919050565b6000602082019050818103600083015261286a8161282e565b9050919050565b7f41756374696f6e206973206e6f74206163746976650000000000000000000000600082015250565b60006128a760158361214c565b91506128b282612871565b602082019050919050565b600060208201905081810360008301526128d68161289a565b9050919050565b7f426964206d75737420626520686967686572207468616e2063757272656e742060008201527f6869676865737400000000000000000000000000000000000000000000000000602082015250565b600061293960278361214c565b9150612944826128dd565b604082019050919050565b600060208201905081810360008301526129688161292c565b9050919050565b600081905092915050565b50565b600061298a60008361296f565b91506129958261297a565b600082019050919050565b60006129ab8261297d565b9150819050919050565b7f50726576696f75732062696464657220726566756e64206661696c6564000000600082015250565b60006129eb601d8361214c565b91506129f6826129b5565b602082019050919050565b60006020820190508181036000830152612a1a816129de565b9050919050565b7f4e487b7100000000000000000000000000000000000000000000000000000000600052602260045260246000fd5b60006002820490506001821680612a6857607f821691505b602082108103612a7b57612a7a612a21565b5b50919050565b7f5061796d656e7420746f206f776e6572206661696c6564000000000000000000600082015250565b6000612ab760178361214c565b9150612ac282612a81565b602082019050919050565b60006020820190508181036000830152612ae681612aaa565b9050919050565b7f4e487b7100000000000000000000000000000000000000000000000000000000600052601160045260246000fd5b6000612b2782611ece565b91507fffffffffffffffffffffffffffffffffffffffffffffffffffffffffffffffff8203612b5957612b58612aed565b5b600182019050919050565b60008190508160005260206000209050919050565b60006020601f8301049050919050565b600082821b905092915050565b600060088302612bc67fffffffffffffffffffffffffffffffffffffffffffffffffffffffffffffffff82612b89565b612bd08683612b89565b95508019841693508086168417925050509392505050565b6000819050919050565b6000612c0d612c08612c0384611ece565b612be8565b611ece565b9050919050565b6000819050919050565b612c2783612bf2565b612c3b612c3382612c14565b848454612b96565b825550505050565b600090565b612c50612c43565b612c5b818484612c1e565b505050565b5b81811015612c7f57612c74600082612c48565b600181019050612c61565b5050565b601f821115612cc457612c9581612b64565b612c9e84612b79565b81016020851015612cad578190505b612cc1612cb985612b79565b830182612c60565b50505b505050565b600082821c905092915050565b6000612ce760001984600802612cc9565b1980831691505092915050565b6000612d008383612cd6565b9150826002028217905092915050565b612d1982612141565b67ffffffffffffffff811115612d3257612d31612250565b5b612d3c8254612a50565b612d47828285612c83565b600060209050601f831160018114612d7a5760008415612d68578287015190505b612d728582612cf4565b865550612dda565b601f198416612d8886612b64565b60005b82811015612db057848901518255600182019150602085019450602081019050612d8b565b86831015612dcd5784890151612dc9601f891682612cd6565b8355505b6001600288020188555050505b505050505050565b6000608082019050612df7600083018761203c565b612e04602083018661204b565b8181036040830152612e168185612198565b9050612e25606083018461203c565b95945050505050565b7f5265656e7472616e637920646574656374656400000000000000000000000000600082015250565b6000612e6460138361214c565b9150612e6f82612e2e565b602082019050919050565b60006020820190508181036000830152612e9381612e57565b9050919050565b7f4c616e64206973206e6f7420666f722073616c65000000000000000000000000600082015250565b6000612ed060148361214c565b9150612edb82612e9a565b602082019050919050565b60006020820190508181036000830152612eff81612ec3565b9050919050565b7f496e73756666696369656e74207061796d656e74000000000000000000000000600082015250565b6000612f3c60148361214c565b9150612f4782612f06565b602082019050919050565b60006020820190508181036000830152612f6b81612f2f565b9050919050565b7f5061796d656e74206661696c6564000000000000000000000000000000000000600082015250565b6000612fa8600e8361214c565b9150612fb382612f72565b602082019050919050565b60006020820190508181036000830152612fd781612f9b565b9050919050565b7f5573657220616c72656164792072656769737465726564000000000000000000600082015250565b600061301460178361214c565b915061301f82612fde565b602082019050919050565b6000602082019050818103600083015261304381613007565b9050919050565b600060808201905061305f600083018761204b565b81810360208301526130718186612198565b905081810360408301526130858185612198565b905081810360608301526130998184612198565b90509594505050505056fea2646970667358221220a695a54f42ede69b26d61df74d2fa5071ad92454859e5f1043413ed393b3d44d64736f6c634300081c0033",
    "linkReferences": {},
    "deployedLinkReferences": {}
}